:100000000C9434000C9458000C9458000C94580034
:100010000C9458000C9458000C9458000C94580000
:100020000C9458000C9458000C9458000C945800F0
:100030000C9458000C9458000C9458000C945800E0
:100040000C9458000C9458000C9458000C945800D0
:100050000C9458000C9458000C9458000C945800C0
:100060000C9458000C94580011241FBECFEFD8E018
:10007000DEBFCDBF84B78093960114BE0FB6F8944F
:10008000A895809160008861809360001092600064
:100090000FBE11E0A0E0B1E0E0E1F7E002C00590A2
:1000A0000D92A639B107D9F70E9491020C948603EC
:1000B0000C940000CF93DF93EB010E94FC0180E0E1
:1000C00091E00E94FC01CE010E940B0280E691E0CB
:1000D000DF91CF910C94FC0152985A9A0895282FE1
:1000E00030E080E099274A9993959217130609F01A
:1000F0000895883C31F095E09A95F1F700008F5F04
:10010000F1CF8FEF08950C946C00FC01892B41F125
:1001100080819181890F9281890F9381890F9481C8
:10012000981321C0228133814030540741F08081EF
:100130009181982789279827FA01808391836030DD
:10014000760759F0922F832F97FF04C09F779195E0
:1001500081959109FB018083918380E090E008956F
:1001600083E090E0089582E090E00895AF92BF921E
:10017000CF92DF92FF920F931F93CF93DF9300D024
:1001800000D00F92CDB7DEB76C015B018E010F5F1F
:100190001F4FF80185E011928A95E9F7529A5A9813
:1001A0008FE39FE10197F1F700C000000E946C000F
:1001B000F89481E00E946F008F3F91F4789481E081
:1001C00090E00F900F900F900F900F90DF91CF91D4
:1001D0001F910F91FF90DF90CF90BF90AF90089547
:1001E00080E00E946F008F3F49F381E00E946F0022
:1001F000F12C8F3F19F380E00E946F008F3FF1F2E6
:1002000081E00E946F008F3FC9F2EF2DE695E695E1
:10021000E695E00FF12FF11D9081990F21E08E32CC
:1002200008F420E0922B90838F2D8F5FF82E883278
:1002300011F77894A501B601C8010E948500C1CFCD
:10024000009729F0BC0180E090E00C94B60083E0B8
:1002500090E00895219A299822982A980895CF939A
:10026000DF93EC0183E090E0209709F440C02998E7
:100270008AE08A95F1F700C0299A85E38A95F1F71B
:10028000000029981092800010928500109284003E
:1002900083E0809381001A9B1FC01092850010920A
:1002A00084001A9927C02091840030918500109213
:1002B0008100AEEAB2E00E94410328EE33E040E064
:1002C00050E00E946403213A8FE03807D8F4288375
:1002D000398380E090E00BC080918400909185008C
:1002E00081339547C0F21092810081E090E0DF9168
:1002F000CF91089580918400909185008133954736
:1003000080F2F1CF84E090E0F2CF9C01AEEAB2E05F
:100310000E94410328EE33E040E050E00E94640375
:10032000C90108950C942F013898409880E4809377
:100330007C0087E880937A000895FC01892BB9F04E
:1003400090917C00907F90937C0090917A009064D3
:1003500090937A0080917A0086FDFCCF809178009E
:10036000909179008083918380E090E0089583E00C
:1003700090E00895EF92FF920F931F93CF93DF9336
:1003800000D0CDB7DEB77C01892B61F403E010E02B
:10039000C8010F900F90DF91CF911F910F91FF90A7
:1003A000EF900895CE0101960E949D018C01892B4A
:1003B00069F729813A81A8E8B3E10E9441032FEF50
:1003C00033E040E050E00E946403F7012083318372
:1003D000DFCF1092C50087E68093C40088E0809349
:1003E000C10086E08093C20008959091C00095FFFF
:1003F000FCCF8093C6000895CF93DF93EC01892B47
:1004000031F4DF91CF91089521960E94F501888102
:100410008111FACFF6CFFF920F931F93CF93DF9303
:1004200000D000D00F92CDB7DEB79C01892B69F4C4
:1004300080E30F900F900F900F900F90DF91CF916E
:100440001F910F91FF900C94F501FE013196F12C54
:100450008F01C9016AE070E00E9450039F2D9F5FE9
:10046000F92E805D80832A30304020F031969B0148
:10047000953079F78F2D8150F82EE82FE00FF12F6E
:10048000F11D80810E94F501F110F4CF0F900F90C3
:100490000F900F900F90DF91CF911F910F91FF90D0
:1004A0000895CF93DF93EC0197FF07C08DE20E9480
:1004B000F501882799278C1B9D0BDF91CF910C9418
:1004C0000B02CF93DF93EC0197FF06C08DE20E94F1
:1004D000F501D195C195D109CE016AE070E00E9485
:1004E0005003C82FCB010E940B028EE20E94F5013F
:1004F0008C2F805DDF91CF910C94F50188E199E21A
:100500000FB6F894A895809360000FBE909360009A
:100510000895A89508958091960183FB882780F916
:100520000895CDB7DEB728970FB6F894DEBF0FBE9B
:10053000CDBF1F8218861D821E821B821C821982DB
:100540001A820E94E9010E947E020E9483000E949A
:100550002A010E94940186E091E00E94FC010E9421
:100560008B02803021F089E291E00E94FC018E0133
:100570000D5F1F4F0E948902CE010596BC010296B5
:100580000E94B600009709F06AC080E591E00E94E1
:10059000FC018F8198850E94610289E591E00E94AB
:1005A000FC018D819E810E9461028FE591E00E9495
:1005B000FC018FEF9DEE22E0815090402040E1F75A
:1005C00000C00000C8010E942F01F02EE12E00970C
:1005D00009F04BC089E691E00E94FC018B819C816F
:1005E0000E940B0284E791E00E94FC018FEF9DEED8
:1005F00022E0815090402040E1F700C000008F2DA4
:100600009E2D0E949D010097B1F581E891E00E9426
:10061000FC018B819C810E940B02CE0101960E94FD
:10062000BA01892B61F48AE891E00E94FC0189817A
:100630009A810E940B028DE891E00E94FC0180E605
:1006400091E00E94FC010E9489028FEF97EA21E667
:10065000815090402040E1F700C000008BCFBC01EA
:1006600083E691E00E945A00A4CFBC0189E791E0A3
:100670000E945A00BBCFBC0181E991E00E945A0060
:10068000E2CFA29FB001B39FC001A39F700D811D57
:100690001124911DB29F700D811D1124911D08958B
:1006A000AA1BBB1B51E107C0AA1FBB1FA617B70798
:1006B00010F0A61BB70B881F991F5A95A9F78095B4
:1006C0009095BC01CD010895A1E21A2EAA1BBB1B77
:1006D000FD010DC0AA1FBB1FEE1FFF1FA217B3070E
:1006E000E407F50720F0A21BB30BE40BF50B661F24
:1006F000771F881F991F1A9469F7609570958095E8
:1007000090959B01AC01BD01CF010895F894FFCFF6
:10071000204552523D000D0A41546D6567613332E8
:10072000385020302E312E30202837363565306451
:100730003332292075700D0A005741524E207072D5
:100740006576696F75732072657365742077617360
:1007500020746865207761746368646F670D0A00B0
:10076000444854323220543D00432052483D002535
:100770000D0A0044485432320048432D535230345D
:1007800020643D006D6D0D0A0048432D53523034F6
:10079000004C4452206164633D002028006D5629BE
:0607A000004C4452000071
:00000001FF
